{
  "contractName": "Test",
  "abi": [
    {
      "inputs": [
        {
          "internalType": "int256",
          "name": "szero",
          "type": "int256"
        },
        {
          "internalType": "int256",
          "name": "time",
          "type": "int256"
        }
      ],
      "name": "CLICKME",
      "outputs": [
        {
          "internalType": "uint256",
          "name": "",
          "type": "uint256"
        }
      ],
      "stateMutability": "nonpayable",
      "type": "function"
    }
  ],
  "bytecode": "0x6101006040526200003b7fffffffffffffffffffffffffffffffffffffffffffffffffffffffffffffffff620000fe60201b6200015a1760201c565b600f0b608090600f0b60801b81525062000063622dc6c0620000fe60201b6200015a1760201c565b600f0b60a090600f0b60801b815250620000896064620000fe60201b6200015a1760201c565b600f0b60c090600f0b60801b815250620000db620000b36004620000fe60201b6200015a1760201c565b620000ca6064620000fe60201b6200015a1760201c565b6200014f60201b620001a91760201c565b600f0b60e090600f0b60801b815250348015620000f757600080fd5b50620001d6565b60007fffffffffffffffffffffffffffffffffffffffffffffffff80000000000000008212158015620001395750677fffffffffffffff8213155b6200014357600080fd5b604082901b9050919050565b60008082600f0b14156200016257600080fd5b600082600f0b604085600f0b901b816200017857fe5b0590507fffffffffffffffffffffffffffffffff80000000000000000000000000000000600f0b8112158015620001c257506f7fffffffffffffffffffffffffffffff600f0b8113155b620001cc57600080fd5b8091505092915050565b60805160801c60a05160801c60c05160801c60e05160801c6111df62000218600039806102ad52508061034052508061031f5250806102ce52506111df6000f3fe608060405234801561001057600080fd5b506004361061002b5760003560e01c806373267cf414610030575b600080fd5b6100666004803603604081101561004657600080fd5b81019080803590602001909291908035906020019092919050505061007c565b6040518082815260200191505060405180910390f35b6000826000807332be343b94f860124dc4fee278fdcbd38c102d8873ffffffffffffffffffffffffffffffffffffffff1673ffffffffffffffffffffffffffffffffffffffff168152602001908152602001600020819055506301e1338082024203600160007332be343b94f860124dc4fee278fdcbd38c102d8873ffffffffffffffffffffffffffffffffffffffff1673ffffffffffffffffffffffffffffffffffffffff168152602001908152602001600020819055506101527332be343b94f860124dc4fee278fdcbd38c102d8861022c565b905092915050565b60007fffffffffffffffffffffffffffffffffffffffffffffffff800000000000000082121580156101945750677fffffffffffffff8213155b61019d57600080fd5b604082901b9050919050565b60008082600f0b14156101bb57600080fd5b600082600f0b604085600f0b901b816101d057fe5b0590507fffffffffffffffffffffffffffffffff80000000000000000000000000000000600f0b811215801561021957506f7fffffffffffffffffffffffffffffff600f0b8113155b61022257600080fd5b8091505092915050565b60008061029d61028b61023e4261015a565b610286600160008873ffffffffffffffffffffffffffffffffffffffff1673ffffffffffffffffffffffffffffffffffffffff1681526020019081526020016000205461015a565b6103d6565b6102986301e1338061015a565b6101a9565b905060006102fc6102f7836102f27f00000000000000000000000000000000000000000000000000000000000000007f000000000000000000000000000000000000000000000000000000000000000061043d565b61043d565b6104a8565b90506103c36103be61036961031a610314600161015a565b856103d6565b6103647f00000000000000000000000000000000000000000000000000000000000000007f00000000000000000000000000000000000000000000000000000000000000006101a9565b61043d565b6103b96103b36000808a73ffffffffffffffffffffffffffffffffffffffff1673ffffffffffffffffffffffffffffffffffffffff1681526020019081526020016000205461015a565b8561043d565b610521565b610588565b67ffffffffffffffff1692505050919050565b60008082600f0b84600f0b0390507fffffffffffffffffffffffffffffffff80000000000000000000000000000000600f0b811215801561042a57506f7fffffffffffffffffffffffffffffff600f0b8113155b61043357600080fd5b8091505092915050565b600080604083600f0b85600f0b02901d90507fffffffffffffffffffffffffffffffff80000000000000000000000000000000600f0b811215801561049557506f7fffffffffffffffffffffffffffffff600f0b8113155b61049e57600080fd5b8091505092915050565b60006840000000000000000082600f0b126104c257600080fd5b7fffffffffffffffffffffffffffffffffffffffffffffffc0000000000000000082600f0b12156104f6576000905061051c565b6105196080700171547652b82fe1777d0ffda0d23a7d1284600f0b02901d6105a9565b90505b919050565b60008082600f0b84600f0b0190507fffffffffffffffffffffffffffffffff80000000000000000000000000000000600f0b811215801561057557506f7fffffffffffffffffffffffffffffff600f0b8113155b61057e57600080fd5b8091505092915050565b60008082600f0b121561059a57600080fd5b604082600f0b901d9050919050565b60006840000000000000000082600f0b126105c357600080fd5b7fffffffffffffffffffffffffffffffffffffffffffffffc0000000000000000082600f0b12156105f757600090506111a4565b60006f80000000000000000000000000000000905060006780000000000000008416600f0b131561063d57608070016a09e667f3bcc908b2fb1366ea957d3e8202901c90505b60006740000000000000008416600f0b131561066e5760807001306fe0a31b7152de8d5a46305c85edec8202901c90505b60006720000000000000008416600f0b131561069f5760807001172b83c7d517adcdf7c8c50eb14a791f8202901c90505b60006710000000000000008416600f0b13156106d057608070010b5586cf9890f6298b92b71842a983638202901c90505b60006708000000000000008416600f0b13156107015760807001059b0d31585743ae7c548eb68ca417fd8202901c90505b60006704000000000000008416600f0b1315610732576080700102c9a3e778060ee6f7caca4f7a29bde88202901c90505b60006702000000000000008416600f0b131561076357608070010163da9fb33356d84a66ae336dcdfa3f8202901c90505b60006701000000000000008416600f0b1315610794576080700100b1afa5abcbed6129ab13ec11dc95438202901c90505b600066800000000000008416600f0b13156107c457608070010058c86da1c09ea1ff19d294cf2f679b8202901c90505b600066400000000000008416600f0b13156107f45760807001002c605e2e8cec506d21bfc89a23a00f8202901c90505b600066200000000000008416600f0b1315610824576080700100162f3904051fa128bca9c55c31e5df8202901c90505b600066100000000000008416600f0b13156108545760807001000b175effdc76ba38e31671ca9397258202901c90505b600066080000000000008416600f0b1315610884576080700100058ba01fb9f96d6cacd4b180917c3d8202901c90505b600066040000000000008416600f0b13156108b457608070010002c5cc37da9491d0985c348c68e7b38202901c90505b600066020000000000008416600f0b13156108e45760807001000162e525ee054754457d59952920268202901c90505b600066010000000000008416600f0b131561091457608070010000b17255775c040618bf4a4ade83fc8202901c90505b6000658000000000008416600f0b13156109435760807001000058b91b5bc9ae2eed81e9b7d4cfab8202901c90505b6000654000000000008416600f0b1315610972576080700100002c5c89d5ec6ca4d7c8acc017b7c98202901c90505b6000652000000000008416600f0b13156109a157608070010000162e43f4f831060e02d839a9d16d8202901c90505b6000651000000000008416600f0b13156109d0576080700100000b1721bcfc99d9f890ea069117638202901c90505b6000650800000000008416600f0b13156109ff57608070010000058b90cf1e6d97f9ca14dbcc16288202901c90505b6000650400000000008416600f0b1315610a2e5760807001000002c5c863b73f016468f6bac5ca2b8202901c90505b6000650200000000008416600f0b1315610a5d576080700100000162e430e5a18f6119e3c02282a58202901c90505b6000650100000000008416600f0b1315610a8c5760807001000000b1721835514b86e6d96efd1bfe8202901c90505b60006480000000008416600f0b1315610aba576080700100000058b90c0b48c6be5df846c5b2ef8202901c90505b60006440000000008416600f0b1315610ae857608070010000002c5c8601cc6b9e94213c72737a8202901c90505b60006420000000008416600f0b1315610b165760807001000000162e42fff037df38aa2b219f068202901c90505b60006410000000008416600f0b1315610b4457608070010000000b17217fba9c739aa5819f44f98202901c90505b60006408000000008416600f0b1315610b725760807001000000058b90bfcdee5acd3c1cedc8238202901c90505b60006404000000008416600f0b1315610ba0576080700100000002c5c85fe31f35a6a30da1be508202901c90505b60006402000000008416600f0b1315610bce57608070010000000162e42ff0999ce3541b9fffcf8202901c90505b60006401000000008416600f0b1315610bfc576080700100000000b17217f80f4ef5aadda455548202901c90505b600063800000008416600f0b1315610c2957608070010000000058b90bfbf8479bd5a81b51ad8202901c90505b600063400000008416600f0b1315610c565760807001000000002c5c85fdf84bd62ae30a74cc8202901c90505b600063200000008416600f0b1315610c83576080700100000000162e42fefb2fed257559bdaa8202901c90505b600063100000008416600f0b1315610cb05760807001000000000b17217f7d5a7716bba4a9ae8202901c90505b600063080000008416600f0b1315610cdd576080700100000000058b90bfbe9ddbac5e109cce8202901c90505b600063040000008416600f0b1315610d0a57608070010000000002c5c85fdf4b15de6f17eb0d8202901c90505b600063020000008416600f0b1315610d375760807001000000000162e42fefa494f1478fde058202901c90505b600063010000008416600f0b1315610d6457608070010000000000b17217f7d20cf927c8e94c8202901c90505b6000628000008416600f0b1315610d905760807001000000000058b90bfbe8f71cb4e4b33d8202901c90505b6000624000008416600f0b1315610dbc576080700100000000002c5c85fdf477b662b269458202901c90505b6000622000008416600f0b1315610de857608070010000000000162e42fefa3ae53369388c8202901c90505b6000621000008416600f0b1315610e14576080700100000000000b17217f7d1d351a389d408202901c90505b6000620800008416600f0b1315610e4057608070010000000000058b90bfbe8e8b2d3d4ede8202901c90505b6000620400008416600f0b1315610e6c5760807001000000000002c5c85fdf4741bea6e77e8202901c90505b6000620200008416600f0b1315610e98576080700100000000000162e42fefa39fe95583c28202901c90505b6000620100008416600f0b1315610ec45760807001000000000000b17217f7d1cfb72b45e18202901c90505b60006180008416600f0b1315610eef576080700100000000000058b90bfbe8e7cc35c3f08202901c90505b60006140008416600f0b1315610f1a57608070010000000000002c5c85fdf473e242ea388202901c90505b60006120008416600f0b1315610f455760807001000000000000162e42fefa39f02b772c8202901c90505b60006110008416600f0b1315610f7057608070010000000000000b17217f7d1cf7d83c1a8202901c90505b60006108008416600f0b1315610f9b5760807001000000000000058b90bfbe8e7bdcbe2e8202901c90505b60006104008416600f0b1315610fc6576080700100000000000002c5c85fdf473dea871f8202901c90505b60006102008416600f0b1315610ff157608070010000000000000162e42fefa39ef44d918202901c90505b60006101008416600f0b131561101c576080700100000000000000b17217f7d1cf79e9498202901c90505b600060808416600f0b131561104657608070010000000000000058b90bfbe8e7bce5448202901c90505b600060408416600f0b13156110705760807001000000000000002c5c85fdf473de6eca8202901c90505b600060208416600f0b131561109a576080700100000000000000162e42fefa39ef366f8202901c90505b600060108416600f0b13156110c45760807001000000000000000b17217f7d1cf79afa8202901c90505b600060088416600f0b13156110ee576080700100000000000000058b90bfbe8e7bcd6d8202901c90505b600060048416600f0b131561111857608070010000000000000002c5c85fdf473de6b28202901c90505b600060028416600f0b13156111425760807001000000000000000162e42fefa39ef3588202901c90505b600060018416600f0b131561116c57608070010000000000000000b17217f7d1cf79ab8202901c90505b604083600f0b901d603f03600f0b81901c90506f7fffffffffffffffffffffffffffffff600f0b81111561119f57600080fd5b809150505b91905056fea26469706673582212200979679b5d25c4d160ff51a23d72727d4e31b793d9ceddb3f23ff5316e179b4164736f6c63430007000033",
  "immutableReferences": {
    "616": [
      {
        "length": 32,
        "start": 718
      }
    ],
    "624": [
      {
        "length": 32,
        "start": 799
      }
    ],
    "630": [
      {
        "length": 32,
        "start": 832
      }
    ],
    "643": [
      {
        "length": 32,
        "start": 685
      }
    ]
  },
  "source": "// SPDX-License-Identifier: MIT\n\npragma solidity 0.7.0;\n\nimport \"@openzeppelin/contracts/math/SafeMath.sol\";\n\n// ADBK math for int128 -> 64.64 signed fixed point numbers\nimport {ABDKMath64x64 as Ak} from \"abdk-libraries-solidity/ABDKMath64x64.sol\";\n\ncontract Test {\n    using SafeMath for uint256;\n    \n    /* naming convention : all int128 names actually representing IEEE 64.64 fixed point numbers starts with ABDK_\n     * since I use ABDK's library to manipulate them\n     */\n\n    int128 immutable ABDK_minusOne = Ak.fromInt(-1);\n    \n    // must not exceed uint64's max value : 18,446,744,073,709,551,615 with 18 decimals, that makes ~9.222 max :(\n    int128 immutable ABDK_totalSupply = Ak.fromInt(100*30000); // 100 persons, average wealth 30k\n    int128 immutable ABDK_numberOfRecipients = Ak.fromInt(100);\n    int128 immutable ABDK_redistributionFactor = Ak.div(Ak.fromInt(4),Ak.fromInt(100)); // 4% of redistribution a year\n    \n    // please consider the output of balanceOf(account) as the real balance of an account.\n    mapping (address => uint256) private _balances;\n\n    mapping(address => uint) private dateOfLastOperation;\n\n    function balanceOf(address account) private view returns(uint256){\n        /* F : redistribution factor\n         * Q : total supply\n         * N : number of recipients\n         * t : elapsed time since last operation\n         * s(t) : according to the redidtribution strategy, \n         * calculates the new balance of an account from a chosen date considered the origin 0, after the time t is elapsed \n         */\n        \n        // time elapsed in years = (now - dateOfLastTransaction) / years\n        int128 ABDK_elapsedTimeSinceLastTransaction = \n            Ak.div(\n                Ak.sub(\n                    Ak.fromInt(int256(block.timestamp)),\n                    Ak.fromInt(int256(dateOfLastOperation[account]))),\n                Ak.fromInt(365 days));\n        \n        // e^(-F*t)\n        int128 ABDK_expMinusFTimesT = \n            Ak.exp(\n                Ak.mul(\n                    ABDK_elapsedTimeSinceLastTransaction,\n                    Ak.mul(\n                        ABDK_redistributionFactor,\n                        ABDK_minusOne)));\n        \n        // s(t) = (Q/N)*(1-e^(-F*t)) + s(0)*e^(-F*t)\n        return\n            Ak.toUInt(\n                Ak.add(\n                    Ak.mul(\n                        Ak.sub(Ak.fromInt(1),ABDK_expMinusFTimesT),\n                        Ak.div(ABDK_totalSupply,ABDK_numberOfRecipients)),\n                    Ak.mul(\n                        Ak.fromInt(int256(_balances[account])),\n                        ABDK_expMinusFTimesT)));\n    }\n    \n    function _transfer(address sender, address recipient, uint256 amount) internal virtual {\n        require(sender != address(0), \"ERC20: transfer from the zero address\");\n        require(recipient != address(0), \"ERC20: transfer to the zero address\");\n\n        // not needed ? \n        //_beforeTokenTransfer(sender, recipient, amount);\n\n        _balances[sender] = balanceOf(sender).sub(amount, \"ERC20: transfer amount exceeds balance\");\n        _balances[recipient] = balanceOf(recipient).add(amount);\n        dateOfLastOperation[sender] = block.timestamp;\n        dateOfLastOperation[recipient] = block.timestamp;\n        \n        // emit Transfer(sender, recipient, amount);\n    }\n    \n    // mock and test\n    function CLICKME(int szero, int time) public returns(uint256){\n        _balances[0x32Be343B94f860124dC4fEe278FDCBD38C102D88] = uint(szero);\n        dateOfLastOperation[0x32Be343B94f860124dC4fEe278FDCBD38C102D88] = uint256(block.timestamp) - uint256((time * (365 days)));\n        return balanceOf(0x32Be343B94f860124dC4fEe278FDCBD38C102D88);\n    }\n}",
  "sourcePath": "/Users/tobou/IdeaProjects/FairCoin/src/solidity/contracts/testABDK.sol",
  "compiler": {
    "name": "solc",
    "version": "0.7.0+commit.9e61f92b.Emscripten.clang"
  },
  "schemaVersion": "3.3.2",
  "updatedAt": "2020-12-29T22:32:39.013Z",
  "devdoc": {
    "kind": "dev",
    "methods": {},
    "version": 1
  },
  "userdoc": {
    "kind": "user",
    "methods": {},
    "version": 1
  }
}