{
	"data": {
		"bytecode": {
			"linkReferences": {},
			"object": "610100604052620000367fffffffffffffffffffffffffffffffffffffffffffffffffffffffffffffffff620000e060201b60201c565b600f0b608090600f0b60801b81525062000059622dc6c0620000e060201b60201c565b600f0b60a090600f0b60801b8152506200007a6064620000e060201b60201c565b600f0b60c090600f0b60801b815250620000bd6200009f6004620000e060201b60201c565b620000b16064620000e060201b60201c565b6200013160201b60201c565b600f0b60e090600f0b60801b815250348015620000d957600080fd5b50620001b8565b60007fffffffffffffffffffffffffffffffffffffffffffffffff800000000000000082121580156200011b5750677fffffffffffffff8213155b6200012557600080fd5b604082901b9050919050565b60008082600f0b14156200014457600080fd5b600082600f0b604085600f0b901b816200015a57fe5b0590507fffffffffffffffffffffffffffffffff80000000000000000000000000000000600f0b8112158015620001a457506f7fffffffffffffffffffffffffffffff600f0b8113155b620001ae57600080fd5b8091505092915050565b60805160801c60a05160801c60c05160801c60e05160801c6111c8620001fa600039806101e652508061027652508061025552508061020752506111c86000f3fe608060405234801561001057600080fd5b506004361061002b5760003560e01c806373267cf414610030575b600080fd5b6100666004803603604081101561004657600080fd5b81019080803590602001909291908035906020019092919050505061007c565b6040518082815260200191505060405180910390f35b6000826000807332be343b94f860124dc4fee278fdcbd38c102d8873ffffffffffffffffffffffffffffffffffffffff1673ffffffffffffffffffffffffffffffffffffffff168152602001908152602001600020819055506301e1338082024203600160007332be343b94f860124dc4fee278fdcbd38c102d8873ffffffffffffffffffffffffffffffffffffffff1673ffffffffffffffffffffffffffffffffffffffff1681526020019081526020016000208190555061015a6101557332be343b94f860124dc4fee278fdcbd38c102d88610165565b6102fd565b60070b905092915050565b6000806101d66101c46101774261030e565b6101bf600160008873ffffffffffffffffffffffffffffffffffffffff1673ffffffffffffffffffffffffffffffffffffffff1681526020019081526020016000205461030e565b61035d565b6101d16301e1338061030e565b6103c4565b905060006102356102308361022b7f00000000000000000000000000000000000000000000000000000000000000007f0000000000000000000000000000000000000000000000000000000000000000610447565b610447565b6104b2565b90506102f461029f61025061024a600161030e565b8461035d565b61029a7f00000000000000000000000000000000000000000000000000000000000000007f00000000000000000000000000000000000000000000000000000000000000006103c4565b610447565b6102ef6102e96000808973ffffffffffffffffffffffffffffffffffffffff1673ffffffffffffffffffffffffffffffffffffffff1681526020019081526020016000205461030e565b84610447565b61052b565b92505050919050565b6000604082600f0b901d9050919050565b60007fffffffffffffffffffffffffffffffffffffffffffffffff800000000000000082121580156103485750677fffffffffffffff8213155b61035157600080fd5b604082901b9050919050565b60008082600f0b84600f0b0390507fffffffffffffffffffffffffffffffff80000000000000000000000000000000600f0b81121580156103b157506f7fffffffffffffffffffffffffffffff600f0b8113155b6103ba57600080fd5b8091505092915050565b60008082600f0b14156103d657600080fd5b600082600f0b604085600f0b901b816103eb57fe5b0590507fffffffffffffffffffffffffffffffff80000000000000000000000000000000600f0b811215801561043457506f7fffffffffffffffffffffffffffffff600f0b8113155b61043d57600080fd5b8091505092915050565b600080604083600f0b85600f0b02901d90507fffffffffffffffffffffffffffffffff80000000000000000000000000000000600f0b811215801561049f57506f7fffffffffffffffffffffffffffffff600f0b8113155b6104a857600080fd5b8091505092915050565b60006840000000000000000082600f0b126104cc57600080fd5b7fffffffffffffffffffffffffffffffffffffffffffffffc0000000000000000082600f0b12156105005760009050610526565b6105236080700171547652b82fe1777d0ffda0d23a7d1284600f0b02901d610592565b90505b919050565b60008082600f0b84600f0b0190507fffffffffffffffffffffffffffffffff80000000000000000000000000000000600f0b811215801561057f57506f7fffffffffffffffffffffffffffffff600f0b8113155b61058857600080fd5b8091505092915050565b60006840000000000000000082600f0b126105ac57600080fd5b7fffffffffffffffffffffffffffffffffffffffffffffffc0000000000000000082600f0b12156105e0576000905061118d565b60006f80000000000000000000000000000000905060006780000000000000008416600f0b131561062657608070016a09e667f3bcc908b2fb1366ea957d3e8202901c90505b60006740000000000000008416600f0b13156106575760807001306fe0a31b7152de8d5a46305c85edec8202901c90505b60006720000000000000008416600f0b13156106885760807001172b83c7d517adcdf7c8c50eb14a791f8202901c90505b60006710000000000000008416600f0b13156106b957608070010b5586cf9890f6298b92b71842a983638202901c90505b60006708000000000000008416600f0b13156106ea5760807001059b0d31585743ae7c548eb68ca417fd8202901c90505b60006704000000000000008416600f0b131561071b576080700102c9a3e778060ee6f7caca4f7a29bde88202901c90505b60006702000000000000008416600f0b131561074c57608070010163da9fb33356d84a66ae336dcdfa3f8202901c90505b60006701000000000000008416600f0b131561077d576080700100b1afa5abcbed6129ab13ec11dc95438202901c90505b600066800000000000008416600f0b13156107ad57608070010058c86da1c09ea1ff19d294cf2f679b8202901c90505b600066400000000000008416600f0b13156107dd5760807001002c605e2e8cec506d21bfc89a23a00f8202901c90505b600066200000000000008416600f0b131561080d576080700100162f3904051fa128bca9c55c31e5df8202901c90505b600066100000000000008416600f0b131561083d5760807001000b175effdc76ba38e31671ca9397258202901c90505b600066080000000000008416600f0b131561086d576080700100058ba01fb9f96d6cacd4b180917c3d8202901c90505b600066040000000000008416600f0b131561089d57608070010002c5cc37da9491d0985c348c68e7b38202901c90505b600066020000000000008416600f0b13156108cd5760807001000162e525ee054754457d59952920268202901c90505b600066010000000000008416600f0b13156108fd57608070010000b17255775c040618bf4a4ade83fc8202901c90505b6000658000000000008416600f0b131561092c5760807001000058b91b5bc9ae2eed81e9b7d4cfab8202901c90505b6000654000000000008416600f0b131561095b576080700100002c5c89d5ec6ca4d7c8acc017b7c98202901c90505b6000652000000000008416600f0b131561098a57608070010000162e43f4f831060e02d839a9d16d8202901c90505b6000651000000000008416600f0b13156109b9576080700100000b1721bcfc99d9f890ea069117638202901c90505b6000650800000000008416600f0b13156109e857608070010000058b90cf1e6d97f9ca14dbcc16288202901c90505b6000650400000000008416600f0b1315610a175760807001000002c5c863b73f016468f6bac5ca2b8202901c90505b6000650200000000008416600f0b1315610a46576080700100000162e430e5a18f6119e3c02282a58202901c90505b6000650100000000008416600f0b1315610a755760807001000000b1721835514b86e6d96efd1bfe8202901c90505b60006480000000008416600f0b1315610aa3576080700100000058b90c0b48c6be5df846c5b2ef8202901c90505b60006440000000008416600f0b1315610ad157608070010000002c5c8601cc6b9e94213c72737a8202901c90505b60006420000000008416600f0b1315610aff5760807001000000162e42fff037df38aa2b219f068202901c90505b60006410000000008416600f0b1315610b2d57608070010000000b17217fba9c739aa5819f44f98202901c90505b60006408000000008416600f0b1315610b5b5760807001000000058b90bfcdee5acd3c1cedc8238202901c90505b60006404000000008416600f0b1315610b89576080700100000002c5c85fe31f35a6a30da1be508202901c90505b60006402000000008416600f0b1315610bb757608070010000000162e42ff0999ce3541b9fffcf8202901c90505b60006401000000008416600f0b1315610be5576080700100000000b17217f80f4ef5aadda455548202901c90505b600063800000008416600f0b1315610c1257608070010000000058b90bfbf8479bd5a81b51ad8202901c90505b600063400000008416600f0b1315610c3f5760807001000000002c5c85fdf84bd62ae30a74cc8202901c90505b600063200000008416600f0b1315610c6c576080700100000000162e42fefb2fed257559bdaa8202901c90505b600063100000008416600f0b1315610c995760807001000000000b17217f7d5a7716bba4a9ae8202901c90505b600063080000008416600f0b1315610cc6576080700100000000058b90bfbe9ddbac5e109cce8202901c90505b600063040000008416600f0b1315610cf357608070010000000002c5c85fdf4b15de6f17eb0d8202901c90505b600063020000008416600f0b1315610d205760807001000000000162e42fefa494f1478fde058202901c90505b600063010000008416600f0b1315610d4d57608070010000000000b17217f7d20cf927c8e94c8202901c90505b6000628000008416600f0b1315610d795760807001000000000058b90bfbe8f71cb4e4b33d8202901c90505b6000624000008416600f0b1315610da5576080700100000000002c5c85fdf477b662b269458202901c90505b6000622000008416600f0b1315610dd157608070010000000000162e42fefa3ae53369388c8202901c90505b6000621000008416600f0b1315610dfd576080700100000000000b17217f7d1d351a389d408202901c90505b6000620800008416600f0b1315610e2957608070010000000000058b90bfbe8e8b2d3d4ede8202901c90505b6000620400008416600f0b1315610e555760807001000000000002c5c85fdf4741bea6e77e8202901c90505b6000620200008416600f0b1315610e81576080700100000000000162e42fefa39fe95583c28202901c90505b6000620100008416600f0b1315610ead5760807001000000000000b17217f7d1cfb72b45e18202901c90505b60006180008416600f0b1315610ed8576080700100000000000058b90bfbe8e7cc35c3f08202901c90505b60006140008416600f0b1315610f0357608070010000000000002c5c85fdf473e242ea388202901c90505b60006120008416600f0b1315610f2e5760807001000000000000162e42fefa39f02b772c8202901c90505b60006110008416600f0b1315610f5957608070010000000000000b17217f7d1cf7d83c1a8202901c90505b60006108008416600f0b1315610f845760807001000000000000058b90bfbe8e7bdcbe2e8202901c90505b60006104008416600f0b1315610faf576080700100000000000002c5c85fdf473dea871f8202901c90505b60006102008416600f0b1315610fda57608070010000000000000162e42fefa39ef44d918202901c90505b60006101008416600f0b1315611005576080700100000000000000b17217f7d1cf79e9498202901c90505b600060808416600f0b131561102f57608070010000000000000058b90bfbe8e7bce5448202901c90505b600060408416600f0b13156110595760807001000000000000002c5c85fdf473de6eca8202901c90505b600060208416600f0b1315611083576080700100000000000000162e42fefa39ef366f8202901c90505b600060108416600f0b13156110ad5760807001000000000000000b17217f7d1cf79afa8202901c90505b600060088416600f0b13156110d7576080700100000000000000058b90bfbe8e7bcd6d8202901c90505b600060048416600f0b131561110157608070010000000000000002c5c85fdf473de6b28202901c90505b600060028416600f0b131561112b5760807001000000000000000162e42fefa39ef3588202901c90505b600060018416600f0b131561115557608070010000000000000000b17217f7d1cf79ab8202901c90505b604083600f0b901d603f03600f0b81901c90506f7fffffffffffffffffffffffffffffff600f0b81111561118857600080fd5b809150505b91905056fea2646970667358221220a49e79e14b70b663da4547d64f1dc28ceeeca2ae4b4a0c4608d5215256c4c64364736f6c63430007000033",
			"opcodes": "PUSH2 0x100 PUSH1 0x40 MSTORE PUSH3 0x36 PUSH32 0xFFFFFFFFFFFFFFFFFFFFFFFFFFFFFFFFFFFFFFFFFFFFFFFFFFFFFFFFFFFFFFFF PUSH3 0xE0 PUSH1 0x20 SHL PUSH1 0x20 SHR JUMP JUMPDEST PUSH1 0xF SIGNEXTEND PUSH1 0x80 SWAP1 PUSH1 0xF SIGNEXTEND PUSH1 0x80 SHL DUP2 MSTORE POP PUSH3 0x59 PUSH3 0x2DC6C0 PUSH3 0xE0 PUSH1 0x20 SHL PUSH1 0x20 SHR JUMP JUMPDEST PUSH1 0xF SIGNEXTEND PUSH1 0xA0 SWAP1 PUSH1 0xF SIGNEXTEND PUSH1 0x80 SHL DUP2 MSTORE POP PUSH3 0x7A PUSH1 0x64 PUSH3 0xE0 PUSH1 0x20 SHL PUSH1 0x20 SHR JUMP JUMPDEST PUSH1 0xF SIGNEXTEND PUSH1 0xC0 SWAP1 PUSH1 0xF SIGNEXTEND PUSH1 0x80 SHL DUP2 MSTORE POP PUSH3 0xBD PUSH3 0x9F PUSH1 0x4 PUSH3 0xE0 PUSH1 0x20 SHL PUSH1 0x20 SHR JUMP JUMPDEST PUSH3 0xB1 PUSH1 0x64 PUSH3 0xE0 PUSH1 0x20 SHL PUSH1 0x20 SHR JUMP JUMPDEST PUSH3 0x131 PUSH1 0x20 SHL PUSH1 0x20 SHR JUMP JUMPDEST PUSH1 0xF SIGNEXTEND PUSH1 0xE0 SWAP1 PUSH1 0xF SIGNEXTEND PUSH1 0x80 SHL DUP2 MSTORE POP CALLVALUE DUP1 ISZERO PUSH3 0xD9 JUMPI PUSH1 0x0 DUP1 REVERT JUMPDEST POP PUSH3 0x1B8 JUMP JUMPDEST PUSH1 0x0 PUSH32 0xFFFFFFFFFFFFFFFFFFFFFFFFFFFFFFFFFFFFFFFFFFFFFFFF8000000000000000 DUP3 SLT ISZERO DUP1 ISZERO PUSH3 0x11B JUMPI POP PUSH8 0x7FFFFFFFFFFFFFFF DUP3 SGT ISZERO JUMPDEST PUSH3 0x125 JUMPI PUSH1 0x0 DUP1 REVERT JUMPDEST PUSH1 0x40 DUP3 SWAP1 SHL SWAP1 POP SWAP2 SWAP1 POP JUMP JUMPDEST PUSH1 0x0 DUP1 DUP3 PUSH1 0xF SIGNEXTEND EQ ISZERO PUSH3 0x144 JUMPI PUSH1 0x0 DUP1 REVERT JUMPDEST PUSH1 0x0 DUP3 PUSH1 0xF SIGNEXTEND PUSH1 0x40 DUP6 PUSH1 0xF SIGNEXTEND SWAP1 SHL DUP2 PUSH3 0x15A JUMPI INVALID JUMPDEST SDIV SWAP1 POP PUSH32 0xFFFFFFFFFFFFFFFFFFFFFFFFFFFFFFFF80000000000000000000000000000000 PUSH1 0xF SIGNEXTEND DUP2 SLT ISZERO DUP1 ISZERO PUSH3 0x1A4 JUMPI POP PUSH16 0x7FFFFFFFFFFFFFFFFFFFFFFFFFFFFFFF PUSH1 0xF SIGNEXTEND DUP2 SGT ISZERO JUMPDEST PUSH3 0x1AE JUMPI PUSH1 0x0 DUP1 REVERT JUMPDEST DUP1 SWAP2 POP POP SWAP3 SWAP2 POP POP JUMP JUMPDEST PUSH1 0x80 MLOAD PUSH1 0x80 SHR PUSH1 0xA0 MLOAD PUSH1 0x80 SHR PUSH1 0xC0 MLOAD PUSH1 0x80 SHR PUSH1 0xE0 MLOAD PUSH1 0x80 SHR PUSH2 0x11C8 PUSH3 0x1FA PUSH1 0x0 CODECOPY DUP1 PUSH2 0x1E6 MSTORE POP DUP1 PUSH2 0x276 MSTORE POP DUP1 PUSH2 0x255 MSTORE POP DUP1 PUSH2 0x207 MSTORE POP PUSH2 0x11C8 PUSH1 0x0 RETURN INVALID PUSH1 0x80 PUSH1 0x40 MSTORE CALLVALUE DUP1 ISZERO PUSH2 0x10 JUMPI PUSH1 0x0 DUP1 REVERT JUMPDEST POP PUSH1 0x4 CALLDATASIZE LT PUSH2 0x2B JUMPI PUSH1 0x0 CALLDATALOAD PUSH1 0xE0 SHR DUP1 PUSH4 0x73267CF4 EQ PUSH2 0x30 JUMPI JUMPDEST PUSH1 0x0 DUP1 REVERT JUMPDEST PUSH2 0x66 PUSH1 0x4 DUP1 CALLDATASIZE SUB PUSH1 0x40 DUP2 LT ISZERO PUSH2 0x46 JUMPI PUSH1 0x0 DUP1 REVERT JUMPDEST DUP2 ADD SWAP1 DUP1 DUP1 CALLDATALOAD SWAP1 PUSH1 0x20 ADD SWAP1 SWAP3 SWAP2 SWAP1 DUP1 CALLDATALOAD SWAP1 PUSH1 0x20 ADD SWAP1 SWAP3 SWAP2 SWAP1 POP POP POP PUSH2 0x7C JUMP JUMPDEST PUSH1 0x40 MLOAD DUP1 DUP3 DUP2 MSTORE PUSH1 0x20 ADD SWAP2 POP POP PUSH1 0x40 MLOAD DUP1 SWAP2 SUB SWAP1 RETURN JUMPDEST PUSH1 0x0 DUP3 PUSH1 0x0 DUP1 PUSH20 0x32BE343B94F860124DC4FEE278FDCBD38C102D88 PUSH20 0xFFFFFFFFFFFFFFFFFFFFFFFFFFFFFFFFFFFFFFFF AND PUSH20 0xFFFFFFFFFFFFFFFFFFFFFFFFFFFFFFFFFFFFFFFF AND DUP2 MSTORE PUSH1 0x20 ADD SWAP1 DUP2 MSTORE PUSH1 0x20 ADD PUSH1 0x0 KECCAK256 DUP2 SWAP1 SSTORE POP PUSH4 0x1E13380 DUP3 MUL TIMESTAMP SUB PUSH1 0x1 PUSH1 0x0 PUSH20 0x32BE343B94F860124DC4FEE278FDCBD38C102D88 PUSH20 0xFFFFFFFFFFFFFFFFFFFFFFFFFFFFFFFFFFFFFFFF AND PUSH20 0xFFFFFFFFFFFFFFFFFFFFFFFFFFFFFFFFFFFFFFFF AND DUP2 MSTORE PUSH1 0x20 ADD SWAP1 DUP2 MSTORE PUSH1 0x20 ADD PUSH1 0x0 KECCAK256 DUP2 SWAP1 SSTORE POP PUSH2 0x15A PUSH2 0x155 PUSH20 0x32BE343B94F860124DC4FEE278FDCBD38C102D88 PUSH2 0x165 JUMP JUMPDEST PUSH2 0x2FD JUMP JUMPDEST PUSH1 0x7 SIGNEXTEND SWAP1 POP SWAP3 SWAP2 POP POP JUMP JUMPDEST PUSH1 0x0 DUP1 PUSH2 0x1D6 PUSH2 0x1C4 PUSH2 0x177 TIMESTAMP PUSH2 0x30E JUMP JUMPDEST PUSH2 0x1BF PUSH1 0x1 PUSH1 0x0 DUP9 PUSH20 0xFFFFFFFFFFFFFFFFFFFFFFFFFFFFFFFFFFFFFFFF AND PUSH20 0xFFFFFFFFFFFFFFFFFFFFFFFFFFFFFFFFFFFFFFFF AND DUP2 MSTORE PUSH1 0x20 ADD SWAP1 DUP2 MSTORE PUSH1 0x20 ADD PUSH1 0x0 KECCAK256 SLOAD PUSH2 0x30E JUMP JUMPDEST PUSH2 0x35D JUMP JUMPDEST PUSH2 0x1D1 PUSH4 0x1E13380 PUSH2 0x30E JUMP JUMPDEST PUSH2 0x3C4 JUMP JUMPDEST SWAP1 POP PUSH1 0x0 PUSH2 0x235 PUSH2 0x230 DUP4 PUSH2 0x22B PUSH32 0x0 PUSH32 0x0 PUSH2 0x447 JUMP JUMPDEST PUSH2 0x447 JUMP JUMPDEST PUSH2 0x4B2 JUMP JUMPDEST SWAP1 POP PUSH2 0x2F4 PUSH2 0x29F PUSH2 0x250 PUSH2 0x24A PUSH1 0x1 PUSH2 0x30E JUMP JUMPDEST DUP5 PUSH2 0x35D JUMP JUMPDEST PUSH2 0x29A PUSH32 0x0 PUSH32 0x0 PUSH2 0x3C4 JUMP JUMPDEST PUSH2 0x447 JUMP JUMPDEST PUSH2 0x2EF PUSH2 0x2E9 PUSH1 0x0 DUP1 DUP10 PUSH20 0xFFFFFFFFFFFFFFFFFFFFFFFFFFFFFFFFFFFFFFFF AND PUSH20 0xFFFFFFFFFFFFFFFFFFFFFFFFFFFFFFFFFFFFFFFF AND DUP2 MSTORE PUSH1 0x20 ADD SWAP1 DUP2 MSTORE PUSH1 0x20 ADD PUSH1 0x0 KECCAK256 SLOAD PUSH2 0x30E JUMP JUMPDEST DUP5 PUSH2 0x447 JUMP JUMPDEST PUSH2 0x52B JUMP JUMPDEST SWAP3 POP POP POP SWAP2 SWAP1 POP JUMP JUMPDEST PUSH1 0x0 PUSH1 0x40 DUP3 PUSH1 0xF SIGNEXTEND SWAP1 SAR SWAP1 POP SWAP2 SWAP1 POP JUMP JUMPDEST PUSH1 0x0 PUSH32 0xFFFFFFFFFFFFFFFFFFFFFFFFFFFFFFFFFFFFFFFFFFFFFFFF8000000000000000 DUP3 SLT ISZERO DUP1 ISZERO PUSH2 0x348 JUMPI POP PUSH8 0x7FFFFFFFFFFFFFFF DUP3 SGT ISZERO JUMPDEST PUSH2 0x351 JUMPI PUSH1 0x0 DUP1 REVERT JUMPDEST PUSH1 0x40 DUP3 SWAP1 SHL SWAP1 POP SWAP2 SWAP1 POP JUMP JUMPDEST PUSH1 0x0 DUP1 DUP3 PUSH1 0xF SIGNEXTEND DUP5 PUSH1 0xF SIGNEXTEND SUB SWAP1 POP PUSH32 0xFFFFFFFFFFFFFFFFFFFFFFFFFFFFFFFF80000000000000000000000000000000 PUSH1 0xF SIGNEXTEND DUP2 SLT ISZERO DUP1 ISZERO PUSH2 0x3B1 JUMPI POP PUSH16 0x7FFFFFFFFFFFFFFFFFFFFFFFFFFFFFFF PUSH1 0xF SIGNEXTEND DUP2 SGT ISZERO JUMPDEST PUSH2 0x3BA JUMPI PUSH1 0x0 DUP1 REVERT JUMPDEST DUP1 SWAP2 POP POP SWAP3 SWAP2 POP POP JUMP JUMPDEST PUSH1 0x0 DUP1 DUP3 PUSH1 0xF SIGNEXTEND EQ ISZERO PUSH2 0x3D6 JUMPI PUSH1 0x0 DUP1 REVERT JUMPDEST PUSH1 0x0 DUP3 PUSH1 0xF SIGNEXTEND PUSH1 0x40 DUP6 PUSH1 0xF SIGNEXTEND SWAP1 SHL DUP2 PUSH2 0x3EB JUMPI INVALID JUMPDEST SDIV SWAP1 POP PUSH32 0xFFFFFFFFFFFFFFFFFFFFFFFFFFFFFFFF80000000000000000000000000000000 PUSH1 0xF SIGNEXTEND DUP2 SLT ISZERO DUP1 ISZERO PUSH2 0x434 JUMPI POP PUSH16 0x7FFFFFFFFFFFFFFFFFFFFFFFFFFFFFFF PUSH1 0xF SIGNEXTEND DUP2 SGT ISZERO JUMPDEST PUSH2 0x43D JUMPI PUSH1 0x0 DUP1 REVERT JUMPDEST DUP1 SWAP2 POP POP SWAP3 SWAP2 POP POP JUMP JUMPDEST PUSH1 0x0 DUP1 PUSH1 0x40 DUP4 PUSH1 0xF SIGNEXTEND DUP6 PUSH1 0xF SIGNEXTEND MUL SWAP1 SAR SWAP1 POP PUSH32 0xFFFFFFFFFFFFFFFFFFFFFFFFFFFFFFFF80000000000000000000000000000000 PUSH1 0xF SIGNEXTEND DUP2 SLT ISZERO DUP1 ISZERO PUSH2 0x49F JUMPI POP PUSH16 0x7FFFFFFFFFFFFFFFFFFFFFFFFFFFFFFF PUSH1 0xF SIGNEXTEND DUP2 SGT ISZERO JUMPDEST PUSH2 0x4A8 JUMPI PUSH1 0x0 DUP1 REVERT JUMPDEST DUP1 SWAP2 POP POP SWAP3 SWAP2 POP POP JUMP JUMPDEST PUSH1 0x0 PUSH9 0x400000000000000000 DUP3 PUSH1 0xF SIGNEXTEND SLT PUSH2 0x4CC JUMPI PUSH1 0x0 DUP1 REVERT JUMPDEST PUSH32 0xFFFFFFFFFFFFFFFFFFFFFFFFFFFFFFFFFFFFFFFFFFFFFFC00000000000000000 DUP3 PUSH1 0xF SIGNEXTEND SLT ISZERO PUSH2 0x500 JUMPI PUSH1 0x0 SWAP1 POP PUSH2 0x526 JUMP JUMPDEST PUSH2 0x523 PUSH1 0x80 PUSH17 0x171547652B82FE1777D0FFDA0D23A7D12 DUP5 PUSH1 0xF SIGNEXTEND MUL SWAP1 SAR PUSH2 0x592 JUMP JUMPDEST SWAP1 POP JUMPDEST SWAP2 SWAP1 POP JUMP JUMPDEST PUSH1 0x0 DUP1 DUP3 PUSH1 0xF SIGNEXTEND DUP5 PUSH1 0xF SIGNEXTEND ADD SWAP1 POP PUSH32 0xFFFFFFFFFFFFFFFFFFFFFFFFFFFFFFFF80000000000000000000000000000000 PUSH1 0xF SIGNEXTEND DUP2 SLT ISZERO DUP1 ISZERO PUSH2 0x57F JUMPI POP PUSH16 0x7FFFFFFFFFFFFFFFFFFFFFFFFFFFFFFF PUSH1 0xF SIGNEXTEND DUP2 SGT ISZERO JUMPDEST PUSH2 0x588 JUMPI PUSH1 0x0 DUP1 REVERT JUMPDEST DUP1 SWAP2 POP POP SWAP3 SWAP2 POP POP JUMP JUMPDEST PUSH1 0x0 PUSH9 0x400000000000000000 DUP3 PUSH1 0xF SIGNEXTEND SLT PUSH2 0x5AC JUMPI PUSH1 0x0 DUP1 REVERT JUMPDEST PUSH32 0xFFFFFFFFFFFFFFFFFFFFFFFFFFFFFFFFFFFFFFFFFFFFFFC00000000000000000 DUP3 PUSH1 0xF SIGNEXTEND SLT ISZERO PUSH2 0x5E0 JUMPI PUSH1 0x0 SWAP1 POP PUSH2 0x118D JUMP JUMPDEST PUSH1 0x0 PUSH16 0x80000000000000000000000000000000 SWAP1 POP PUSH1 0x0 PUSH8 0x8000000000000000 DUP5 AND PUSH1 0xF SIGNEXTEND SGT ISZERO PUSH2 0x626 JUMPI PUSH1 0x80 PUSH17 0x16A09E667F3BCC908B2FB1366EA957D3E DUP3 MUL SWAP1 SHR SWAP1 POP JUMPDEST PUSH1 0x0 PUSH8 0x4000000000000000 DUP5 AND PUSH1 0xF SIGNEXTEND SGT ISZERO PUSH2 0x657 JUMPI PUSH1 0x80 PUSH17 0x1306FE0A31B7152DE8D5A46305C85EDEC DUP3 MUL SWAP1 SHR SWAP1 POP JUMPDEST PUSH1 0x0 PUSH8 0x2000000000000000 DUP5 AND PUSH1 0xF SIGNEXTEND SGT ISZERO PUSH2 0x688 JUMPI PUSH1 0x80 PUSH17 0x1172B83C7D517ADCDF7C8C50EB14A791F DUP3 MUL SWAP1 SHR SWAP1 POP JUMPDEST PUSH1 0x0 PUSH8 0x1000000000000000 DUP5 AND PUSH1 0xF SIGNEXTEND SGT ISZERO PUSH2 0x6B9 JUMPI PUSH1 0x80 PUSH17 0x10B5586CF9890F6298B92B71842A98363 DUP3 MUL SWAP1 SHR SWAP1 POP JUMPDEST PUSH1 0x0 PUSH8 0x800000000000000 DUP5 AND PUSH1 0xF SIGNEXTEND SGT ISZERO PUSH2 0x6EA JUMPI PUSH1 0x80 PUSH17 0x1059B0D31585743AE7C548EB68CA417FD DUP3 MUL SWAP1 SHR SWAP1 POP JUMPDEST PUSH1 0x0 PUSH8 0x400000000000000 DUP5 AND PUSH1 0xF SIGNEXTEND SGT ISZERO PUSH2 0x71B JUMPI PUSH1 0x80 PUSH17 0x102C9A3E778060EE6F7CACA4F7A29BDE8 DUP3 MUL SWAP1 SHR SWAP1 POP JUMPDEST PUSH1 0x0 PUSH8 0x200000000000000 DUP5 AND PUSH1 0xF SIGNEXTEND SGT ISZERO PUSH2 0x74C JUMPI PUSH1 0x80 PUSH17 0x10163DA9FB33356D84A66AE336DCDFA3F DUP3 MUL SWAP1 SHR SWAP1 POP JUMPDEST PUSH1 0x0 PUSH8 0x100000000000000 DUP5 AND PUSH1 0xF SIGNEXTEND SGT ISZERO PUSH2 0x77D JUMPI PUSH1 0x80 PUSH17 0x100B1AFA5ABCBED6129AB13EC11DC9543 DUP3 MUL SWAP1 SHR SWAP1 POP JUMPDEST PUSH1 0x0 PUSH7 0x80000000000000 DUP5 AND PUSH1 0xF SIGNEXTEND SGT ISZERO PUSH2 0x7AD JUMPI PUSH1 0x80 PUSH17 0x10058C86DA1C09EA1FF19D294CF2F679B DUP3 MUL SWAP1 SHR SWAP1 POP JUMPDEST PUSH1 0x0 PUSH7 0x40000000000000 DUP5 AND PUSH1 0xF SIGNEXTEND SGT ISZERO PUSH2 0x7DD JUMPI PUSH1 0x80 PUSH17 0x1002C605E2E8CEC506D21BFC89A23A00F DUP3 MUL SWAP1 SHR SWAP1 POP JUMPDEST PUSH1 0x0 PUSH7 0x20000000000000 DUP5 AND PUSH1 0xF SIGNEXTEND SGT ISZERO PUSH2 0x80D JUMPI PUSH1 0x80 PUSH17 0x100162F3904051FA128BCA9C55C31E5DF DUP3 MUL SWAP1 SHR SWAP1 POP JUMPDEST PUSH1 0x0 PUSH7 0x10000000000000 DUP5 AND PUSH1 0xF SIGNEXTEND SGT ISZERO PUSH2 0x83D JUMPI PUSH1 0x80 PUSH17 0x1000B175EFFDC76BA38E31671CA939725 DUP3 MUL SWAP1 SHR SWAP1 POP JUMPDEST PUSH1 0x0 PUSH7 0x8000000000000 DUP5 AND PUSH1 0xF SIGNEXTEND SGT ISZERO PUSH2 0x86D JUMPI PUSH1 0x80 PUSH17 0x100058BA01FB9F96D6CACD4B180917C3D DUP3 MUL SWAP1 SHR SWAP1 POP JUMPDEST PUSH1 0x0 PUSH7 0x4000000000000 DUP5 AND PUSH1 0xF SIGNEXTEND SGT ISZERO PUSH2 0x89D JUMPI PUSH1 0x80 PUSH17 0x10002C5CC37DA9491D0985C348C68E7B3 DUP3 MUL SWAP1 SHR SWAP1 POP JUMPDEST PUSH1 0x0 PUSH7 0x2000000000000 DUP5 AND PUSH1 0xF SIGNEXTEND SGT ISZERO PUSH2 0x8CD JUMPI PUSH1 0x80 PUSH17 0x1000162E525EE054754457D5995292026 DUP3 MUL SWAP1 SHR SWAP1 POP JUMPDEST PUSH1 0x0 PUSH7 0x1000000000000 DUP5 AND PUSH1 0xF SIGNEXTEND SGT ISZERO PUSH2 0x8FD JUMPI PUSH1 0x80 PUSH17 0x10000B17255775C040618BF4A4ADE83FC DUP3 MUL SWAP1 SHR SWAP1 POP JUMPDEST PUSH1 0x0 PUSH6 0x800000000000 DUP5 AND PUSH1 0xF SIGNEXTEND SGT ISZERO PUSH2 0x92C JUMPI PUSH1 0x80 PUSH17 0x1000058B91B5BC9AE2EED81E9B7D4CFAB DUP3 MUL SWAP1 SHR SWAP1 POP JUMPDEST PUSH1 0x0 PUSH6 0x400000000000 DUP5 AND PUSH1 0xF SIGNEXTEND SGT ISZERO PUSH2 0x95B JUMPI PUSH1 0x80 PUSH17 0x100002C5C89D5EC6CA4D7C8ACC017B7C9 DUP3 MUL SWAP1 SHR SWAP1 POP JUMPDEST PUSH1 0x0 PUSH6 0x200000000000 DUP5 AND PUSH1 0xF SIGNEXTEND SGT ISZERO PUSH2 0x98A JUMPI PUSH1 0x80 PUSH17 0x10000162E43F4F831060E02D839A9D16D DUP3 MUL SWAP1 SHR SWAP1 POP JUMPDEST PUSH1 0x0 PUSH6 0x100000000000 DUP5 AND PUSH1 0xF SIGNEXTEND SGT ISZERO PUSH2 0x9B9 JUMPI PUSH1 0x80 PUSH17 0x100000B1721BCFC99D9F890EA06911763 DUP3 MUL SWAP1 SHR SWAP1 POP JUMPDEST PUSH1 0x0 PUSH6 0x80000000000 DUP5 AND PUSH1 0xF SIGNEXTEND SGT ISZERO PUSH2 0x9E8 JUMPI PUSH1 0x80 PUSH17 0x10000058B90CF1E6D97F9CA14DBCC1628 DUP3 MUL SWAP1 SHR SWAP1 POP JUMPDEST PUSH1 0x0 PUSH6 0x40000000000 DUP5 AND PUSH1 0xF SIGNEXTEND SGT ISZERO PUSH2 0xA17 JUMPI PUSH1 0x80 PUSH17 0x1000002C5C863B73F016468F6BAC5CA2B DUP3 MUL SWAP1 SHR SWAP1 POP JUMPDEST PUSH1 0x0 PUSH6 0x20000000000 DUP5 AND PUSH1 0xF SIGNEXTEND SGT ISZERO PUSH2 0xA46 JUMPI PUSH1 0x80 PUSH17 0x100000162E430E5A18F6119E3C02282A5 DUP3 MUL SWAP1 SHR SWAP1 POP JUMPDEST PUSH1 0x0 PUSH6 0x10000000000 DUP5 AND PUSH1 0xF SIGNEXTEND SGT ISZERO PUSH2 0xA75 JUMPI PUSH1 0x80 PUSH17 0x1000000B1721835514B86E6D96EFD1BFE DUP3 MUL SWAP1 SHR SWAP1 POP JUMPDEST PUSH1 0x0 PUSH5 0x8000000000 DUP5 AND PUSH1 0xF SIGNEXTEND SGT ISZERO PUSH2 0xAA3 JUMPI PUSH1 0x80 PUSH17 0x100000058B90C0B48C6BE5DF846C5B2EF DUP3 MUL SWAP1 SHR SWAP1 POP JUMPDEST PUSH1 0x0 PUSH5 0x4000000000 DUP5 AND PUSH1 0xF SIGNEXTEND SGT ISZERO PUSH2 0xAD1 JUMPI PUSH1 0x80 PUSH17 0x10000002C5C8601CC6B9E94213C72737A DUP3 MUL SWAP1 SHR SWAP1 POP JUMPDEST PUSH1 0x0 PUSH5 0x2000000000 DUP5 AND PUSH1 0xF SIGNEXTEND SGT ISZERO PUSH2 0xAFF JUMPI PUSH1 0x80 PUSH17 0x1000000162E42FFF037DF38AA2B219F06 DUP3 MUL SWAP1 SHR SWAP1 POP JUMPDEST PUSH1 0x0 PUSH5 0x1000000000 DUP5 AND PUSH1 0xF SIGNEXTEND SGT ISZERO PUSH2 0xB2D JUMPI PUSH1 0x80 PUSH17 0x10000000B17217FBA9C739AA5819F44F9 DUP3 MUL SWAP1 SHR SWAP1 POP JUMPDEST PUSH1 0x0 PUSH5 0x800000000 DUP5 AND PUSH1 0xF SIGNEXTEND SGT ISZERO PUSH2 0xB5B JUMPI PUSH1 0x80 PUSH17 0x1000000058B90BFCDEE5ACD3C1CEDC823 DUP3 MUL SWAP1 SHR SWAP1 POP JUMPDEST PUSH1 0x0 PUSH5 0x400000000 DUP5 AND PUSH1 0xF SIGNEXTEND SGT ISZERO PUSH2 0xB89 JUMPI PUSH1 0x80 PUSH17 0x100000002C5C85FE31F35A6A30DA1BE50 DUP3 MUL SWAP1 SHR SWAP1 POP JUMPDEST PUSH1 0x0 PUSH5 0x200000000 DUP5 AND PUSH1 0xF SIGNEXTEND SGT ISZERO PUSH2 0xBB7 JUMPI PUSH1 0x80 PUSH17 0x10000000162E42FF0999CE3541B9FFFCF DUP3 MUL SWAP1 SHR SWAP1 POP JUMPDEST PUSH1 0x0 PUSH5 0x100000000 DUP5 AND PUSH1 0xF SIGNEXTEND SGT ISZERO PUSH2 0xBE5 JUMPI PUSH1 0x80 PUSH17 0x100000000B17217F80F4EF5AADDA45554 DUP3 MUL SWAP1 SHR SWAP1 POP JUMPDEST PUSH1 0x0 PUSH4 0x80000000 DUP5 AND PUSH1 0xF SIGNEXTEND SGT ISZERO PUSH2 0xC12 JUMPI PUSH1 0x80 PUSH17 0x10000000058B90BFBF8479BD5A81B51AD DUP3 MUL SWAP1 SHR SWAP1 POP JUMPDEST PUSH1 0x0 PUSH4 0x40000000 DUP5 AND PUSH1 0xF SIGNEXTEND SGT ISZERO PUSH2 0xC3F JUMPI PUSH1 0x80 PUSH17 0x1000000002C5C85FDF84BD62AE30A74CC DUP3 MUL SWAP1 SHR SWAP1 POP JUMPDEST PUSH1 0x0 PUSH4 0x20000000 DUP5 AND PUSH1 0xF SIGNEXTEND SGT ISZERO PUSH2 0xC6C JUMPI PUSH1 0x80 PUSH17 0x100000000162E42FEFB2FED257559BDAA DUP3 MUL SWAP1 SHR SWAP1 POP JUMPDEST PUSH1 0x0 PUSH4 0x10000000 DUP5 AND PUSH1 0xF SIGNEXTEND SGT ISZERO PUSH2 0xC99 JUMPI PUSH1 0x80 PUSH17 0x1000000000B17217F7D5A7716BBA4A9AE DUP3 MUL SWAP1 SHR SWAP1 POP JUMPDEST PUSH1 0x0 PUSH4 0x8000000 DUP5 AND PUSH1 0xF SIGNEXTEND SGT ISZERO PUSH2 0xCC6 JUMPI PUSH1 0x80 PUSH17 0x100000000058B90BFBE9DDBAC5E109CCE DUP3 MUL SWAP1 SHR SWAP1 POP JUMPDEST PUSH1 0x0 PUSH4 0x4000000 DUP5 AND PUSH1 0xF SIGNEXTEND SGT ISZERO PUSH2 0xCF3 JUMPI PUSH1 0x80 PUSH17 0x10000000002C5C85FDF4B15DE6F17EB0D DUP3 MUL SWAP1 SHR SWAP1 POP JUMPDEST PUSH1 0x0 PUSH4 0x2000000 DUP5 AND PUSH1 0xF SIGNEXTEND SGT ISZERO PUSH2 0xD20 JUMPI PUSH1 0x80 PUSH17 0x1000000000162E42FEFA494F1478FDE05 DUP3 MUL SWAP1 SHR SWAP1 POP JUMPDEST PUSH1 0x0 PUSH4 0x1000000 DUP5 AND PUSH1 0xF SIGNEXTEND SGT ISZERO PUSH2 0xD4D JUMPI PUSH1 0x80 PUSH17 0x10000000000B17217F7D20CF927C8E94C DUP3 MUL SWAP1 SHR SWAP1 POP JUMPDEST PUSH1 0x0 PUSH3 0x800000 DUP5 AND PUSH1 0xF SIGNEXTEND SGT ISZERO PUSH2 0xD79 JUMPI PUSH1 0x80 PUSH17 0x1000000000058B90BFBE8F71CB4E4B33D DUP3 MUL SWAP1 SHR SWAP1 POP JUMPDEST PUSH1 0x0 PUSH3 0x400000 DUP5 AND PUSH1 0xF SIGNEXTEND SGT ISZERO PUSH2 0xDA5 JUMPI PUSH1 0x80 PUSH17 0x100000000002C5C85FDF477B662B26945 DUP3 MUL SWAP1 SHR SWAP1 POP JUMPDEST PUSH1 0x0 PUSH3 0x200000 DUP5 AND PUSH1 0xF SIGNEXTEND SGT ISZERO PUSH2 0xDD1 JUMPI PUSH1 0x80 PUSH17 0x10000000000162E42FEFA3AE53369388C DUP3 MUL SWAP1 SHR SWAP1 POP JUMPDEST PUSH1 0x0 PUSH3 0x100000 DUP5 AND PUSH1 0xF SIGNEXTEND SGT ISZERO PUSH2 0xDFD JUMPI PUSH1 0x80 PUSH17 0x100000000000B17217F7D1D351A389D40 DUP3 MUL SWAP1 SHR SWAP1 POP JUMPDEST PUSH1 0x0 PUSH3 0x80000 DUP5 AND PUSH1 0xF SIGNEXTEND SGT ISZERO PUSH2 0xE29 JUMPI PUSH1 0x80 PUSH17 0x10000000000058B90BFBE8E8B2D3D4EDE DUP3 MUL SWAP1 SHR SWAP1 POP JUMPDEST PUSH1 0x0 PUSH3 0x40000 DUP5 AND PUSH1 0xF SIGNEXTEND SGT ISZERO PUSH2 0xE55 JUMPI PUSH1 0x80 PUSH17 0x1000000000002C5C85FDF4741BEA6E77E DUP3 MUL SWAP1 SHR SWAP1 POP JUMPDEST PUSH1 0x0 PUSH3 0x20000 DUP5 AND PUSH1 0xF SIGNEXTEND SGT ISZERO PUSH2 0xE81 JUMPI PUSH1 0x80 PUSH17 0x100000000000162E42FEFA39FE95583C2 DUP3 MUL SWAP1 SHR SWAP1 POP JUMPDEST PUSH1 0x0 PUSH3 0x10000 DUP5 AND PUSH1 0xF SIGNEXTEND SGT ISZERO PUSH2 0xEAD JUMPI PUSH1 0x80 PUSH17 0x1000000000000B17217F7D1CFB72B45E1 DUP3 MUL SWAP1 SHR SWAP1 POP JUMPDEST PUSH1 0x0 PUSH2 0x8000 DUP5 AND PUSH1 0xF SIGNEXTEND SGT ISZERO PUSH2 0xED8 JUMPI PUSH1 0x80 PUSH17 0x100000000000058B90BFBE8E7CC35C3F0 DUP3 MUL SWAP1 SHR SWAP1 POP JUMPDEST PUSH1 0x0 PUSH2 0x4000 DUP5 AND PUSH1 0xF SIGNEXTEND SGT ISZERO PUSH2 0xF03 JUMPI PUSH1 0x80 PUSH17 0x10000000000002C5C85FDF473E242EA38 DUP3 MUL SWAP1 SHR SWAP1 POP JUMPDEST PUSH1 0x0 PUSH2 0x2000 DUP5 AND PUSH1 0xF SIGNEXTEND SGT ISZERO PUSH2 0xF2E JUMPI PUSH1 0x80 PUSH17 0x1000000000000162E42FEFA39F02B772C DUP3 MUL SWAP1 SHR SWAP1 POP JUMPDEST PUSH1 0x0 PUSH2 0x1000 DUP5 AND PUSH1 0xF SIGNEXTEND SGT ISZERO PUSH2 0xF59 JUMPI PUSH1 0x80 PUSH17 0x10000000000000B17217F7D1CF7D83C1A DUP3 MUL SWAP1 SHR SWAP1 POP JUMPDEST PUSH1 0x0 PUSH2 0x800 DUP5 AND PUSH1 0xF SIGNEXTEND SGT ISZERO PUSH2 0xF84 JUMPI PUSH1 0x80 PUSH17 0x1000000000000058B90BFBE8E7BDCBE2E DUP3 MUL SWAP1 SHR SWAP1 POP JUMPDEST PUSH1 0x0 PUSH2 0x400 DUP5 AND PUSH1 0xF SIGNEXTEND SGT ISZERO PUSH2 0xFAF JUMPI PUSH1 0x80 PUSH17 0x100000000000002C5C85FDF473DEA871F DUP3 MUL SWAP1 SHR SWAP1 POP JUMPDEST PUSH1 0x0 PUSH2 0x200 DUP5 AND PUSH1 0xF SIGNEXTEND SGT ISZERO PUSH2 0xFDA JUMPI PUSH1 0x80 PUSH17 0x10000000000000162E42FEFA39EF44D91 DUP3 MUL SWAP1 SHR SWAP1 POP JUMPDEST PUSH1 0x0 PUSH2 0x100 DUP5 AND PUSH1 0xF SIGNEXTEND SGT ISZERO PUSH2 0x1005 JUMPI PUSH1 0x80 PUSH17 0x100000000000000B17217F7D1CF79E949 DUP3 MUL SWAP1 SHR SWAP1 POP JUMPDEST PUSH1 0x0 PUSH1 0x80 DUP5 AND PUSH1 0xF SIGNEXTEND SGT ISZERO PUSH2 0x102F JUMPI PUSH1 0x80 PUSH17 0x10000000000000058B90BFBE8E7BCE544 DUP3 MUL SWAP1 SHR SWAP1 POP JUMPDEST PUSH1 0x0 PUSH1 0x40 DUP5 AND PUSH1 0xF SIGNEXTEND SGT ISZERO PUSH2 0x1059 JUMPI PUSH1 0x80 PUSH17 0x1000000000000002C5C85FDF473DE6ECA DUP3 MUL SWAP1 SHR SWAP1 POP JUMPDEST PUSH1 0x0 PUSH1 0x20 DUP5 AND PUSH1 0xF SIGNEXTEND SGT ISZERO PUSH2 0x1083 JUMPI PUSH1 0x80 PUSH17 0x100000000000000162E42FEFA39EF366F DUP3 MUL SWAP1 SHR SWAP1 POP JUMPDEST PUSH1 0x0 PUSH1 0x10 DUP5 AND PUSH1 0xF SIGNEXTEND SGT ISZERO PUSH2 0x10AD JUMPI PUSH1 0x80 PUSH17 0x1000000000000000B17217F7D1CF79AFA DUP3 MUL SWAP1 SHR SWAP1 POP JUMPDEST PUSH1 0x0 PUSH1 0x8 DUP5 AND PUSH1 0xF SIGNEXTEND SGT ISZERO PUSH2 0x10D7 JUMPI PUSH1 0x80 PUSH17 0x100000000000000058B90BFBE8E7BCD6D DUP3 MUL SWAP1 SHR SWAP1 POP JUMPDEST PUSH1 0x0 PUSH1 0x4 DUP5 AND PUSH1 0xF SIGNEXTEND SGT ISZERO PUSH2 0x1101 JUMPI PUSH1 0x80 PUSH17 0x10000000000000002C5C85FDF473DE6B2 DUP3 MUL SWAP1 SHR SWAP1 POP JUMPDEST PUSH1 0x0 PUSH1 0x2 DUP5 AND PUSH1 0xF SIGNEXTEND SGT ISZERO PUSH2 0x112B JUMPI PUSH1 0x80 PUSH17 0x1000000000000000162E42FEFA39EF358 DUP3 MUL SWAP1 SHR SWAP1 POP JUMPDEST PUSH1 0x0 PUSH1 0x1 DUP5 AND PUSH1 0xF SIGNEXTEND SGT ISZERO PUSH2 0x1155 JUMPI PUSH1 0x80 PUSH17 0x10000000000000000B17217F7D1CF79AB DUP3 MUL SWAP1 SHR SWAP1 POP JUMPDEST PUSH1 0x40 DUP4 PUSH1 0xF SIGNEXTEND SWAP1 SAR PUSH1 0x3F SUB PUSH1 0xF SIGNEXTEND DUP2 SWAP1 SHR SWAP1 POP PUSH16 0x7FFFFFFFFFFFFFFFFFFFFFFFFFFFFFFF PUSH1 0xF SIGNEXTEND DUP2 GT ISZERO PUSH2 0x1188 JUMPI PUSH1 0x0 DUP1 REVERT JUMPDEST DUP1 SWAP2 POP POP JUMPDEST SWAP2 SWAP1 POP JUMP INVALID LOG2 PUSH5 0x6970667358 0x22 SLT KECCAK256 LOG4 SWAP15 PUSH26 0xE14B70B663DA4547D64F1DC28CEEECA2AE4B4A0C4608D5215256 0xC4 0xC6 NUMBER PUSH5 0x736F6C6343 STOP SMOD STOP STOP CALLER "
		},
		"gasEstimates": {
			"creation": {
				"codeDepositCost": "910400",
				"executionCost": "infinite",
				"totalCost": "infinite"
			},
			"external": {
				"CLICKME(int256,int256)": "infinite"
			},
			"internal": {
				"abs(int128)": "infinite",
				"add(int128,int128)": "141",
				"avg(int128,int128)": "infinite",
				"balanceOf(address)": "infinite",
				"div(int128,int128)": "203",
				"divi(int256,int256)": "infinite",
				"divu(uint256,uint256)": "infinite",
				"divuu(uint256,uint256)": "infinite",
				"exp(int128)": "4483",
				"exp_2(int128)": "4349",
				"from128x128(int256)": "infinite",
				"fromInt(int256)": "97",
				"fromUInt(uint256)": "infinite",
				"gavg(int128,int128)": "infinite",
				"inv(int128)": "infinite",
				"ln(int128)": "infinite",
				"log_2(int128)": "infinite",
				"mul(int128,int128)": "152",
				"muli(int128,int256)": "infinite",
				"mulu(int128,uint256)": "infinite",
				"neg(int128)": "infinite",
				"pow(int128,uint256)": "infinite",
				"powu(uint256,uint256)": "infinite",
				"sqrt(int128)": "infinite",
				"sqrtu(uint256)": "infinite",
				"sub(int128,int128)": "141",
				"to128x128(int128)": "infinite",
				"toInt(int128)": "45",
				"toUInt(int128)": "infinite"
			}
		},
		"methodIdentifiers": {
			"CLICKME(int256,int256)": "73267cf4"
		}
	},
	"abi": [
		{
			"inputs": [
				{
					"internalType": "int256",
					"name": "szero",
					"type": "int256"
				},
				{
					"internalType": "int256",
					"name": "time",
					"type": "int256"
				}
			],
			"name": "CLICKME",
			"outputs": [
				{
					"internalType": "int256",
					"name": "",
					"type": "int256"
				}
			],
			"stateMutability": "nonpayable",
			"type": "function"
		}
	]
}